01#BPA#2026040001500000021610COMUNICARE                    NVM   00000000000000                                        MD04.12
03435244020260370700689102613125151020260330001010301070040709208208366133M150420F84000400000201             BPAEVELISE JULIANA DOS S DA COSTA2021042903    010135002                          68513540472FOLHA 19                                09   NOVA MARABA                   94992698780                                                              
03435244020260370810454186273423941520260327001010301070024702800166699164F150420F84000300000101             BPALIA KETLEN SOUZA MIRANDA      2022112103    010135002                          68501110765AVENIDA M ADELINA                       1143 INDEPENDENCIA                 94991111079                                                              
03435244020260370810454186273423942520260330001010301070059702405072896223F150420F84001600000201             BPAEMILIA CUNHA NEVES SAMPAIO    2009040903    010                                68503560081FORTALEZA                               30   BELO HORIZONTE                                                                                         
03435244020260370080694939468022381020260330001010301070113704209291728581M150420R49800600000101             BPAJOSE FELIPE DOS SANTOS LIMA   2020012903    010135010                          68501290081NOSSA SENHORA APARECIDA                 1331 LIBERDADE                     94991855636                                                              
03435244020260370570443244423022381020260327001010301070113700004940118104M150420R49801000000101             BPADAVI GABRIEL FREITAS DE SOUZA 2015080503    010135010                          68501590081VITAL BRASIL                            21   DA PAZ                        94991351649                                                              
03435244020260370810451977123323941520260327001010301070024703603003235838M150420F84000600000101             BPAEDUARDO JOAQUIM A. RODRIGUES  2019091803    010135002                          68514300561RUA 13                                  12   VALE DO ITACAIUNAS            94992420685                                                              
03435244020260370810451977123323942520260326001010301070059700109981446010F150420F84000800000201             BPALUIZA SERRA XOTA              2017092903    010                                68514300561RUA TRINTA E QUATRO                     SN   DELTA PARK                    94992707190                                                              
03435244020260370690710117493625151020260326001010301070040704808023363743F150420F84000800000201             BPACECILIA JARDIM MARTINS        2017092103    010135002                          68501000081FOLHA 21 QD 08                          37   NOVA MARABA                   94991559136                                                              
03435244020260370000266387670925151020260331001010301070040700502575925258F150420F84000700000101             BPAMEL MATOS FRAZO               2018092703    010135002                          68514300081RUA SO LUIZ QD30                        59   DA PAZ                        94992711641                                                              
03435244020260370000216183510025151020260326001010301070040703407246097916M150420F84000700000301             BPAARTHUR PYETRO FREITAS DE SOUZA2018051103    010135002                          68503000081VITAL BRASIL                  CASA      21   DA PAZ                        94991083264                                                              
03435244020260370250834344293423941520260325001010301070024706808766355024M150420F84000400000201             BPABRYAN GAEL DO NASCIMENTO L D P2022030803    010135002                          68501526081RUA PERNAMBUCO                          16   BELO HORIZONTE                94981087735                                                              
03435244020260370250834344293423942520260325001010301070059707502243936590M150420F84001200000201             BPAPEDRO HEITOR N. BEZERRA       2013071103    010                                68505370472FOLHA 20 QD 15                CASA      01   NOVA MARABA                   94981472534                                                              
03435244020260370000712267680822381020260326001010301070113708008565066630M150420R49801100000201             BPADANILO AMJITYTI OLIVEIRA      20140418050246010135010                          68502190081DA COLINA                               146  AMAPA                         94999346350                                                              
03435244020260370700689102613125151020260325001020301070040700000191364503M150420F84000700000101             BPAARTHUR BENICIO COSTA SILVA    2018070503    010135002                          68507560820FOLHA 31                                37   NOVA MARABA                   94992293320                                                              
03435244020260370080694939468022381020260325001020301070113700000191364503M150420R49800700000201             BPAARTHUR BENICIO COSTA SILVA    2018070503    010135010                          68507560820FOLHA 31                                37   NOVA MARABA                   94992293320                                                              
03435244020260370570443244423022381020260325001020301070113705003034349756F150420R49800500000201             BPAMARCELA TAVEIRA CAMARGOS      2020092403    010135010                          68501660655TRANSAMAZONICA                          S/N  CIDADE NOVA                   94991356628                                                              
03435244020260370810454186273423941520260330001020301070024700504518495454M150420F84000600000101             BPABRYAN GUILHERME A DOS SANTOS  2019092603    010135002                          68501720765AV MANAUS                               01   BOM PLANALTO                  94991054822                                                              
03435244020260370810451977123323941520260327001020301070024703005814886977M150420F84000600000101             BPAMARLEY GABRIEL MARRONE F SILVA2019092003    010135002                          68501080008PARAISO                                 1058 LIBERDADE                     94992309985                                                              
03435244020260370810451977123323942520260326001020301070059700205436171624M150420F84001100000201             BPAJOAO VITOR ARAUJO NUNES       2015020403    010                                68500340561RUA 27 DE MARCO                         356  FRANCISCO COELHO              94981440235                                                              
03435244020260370000266387670925151020260326001020301070040706203549636263M150420F84000800000201             BPACARLOS HENRIQUE WERNECK MONTEL2017110703    010135002                          68514300081ESMERALDA                               30   NOSSA SENHORA APRECIDA        94992487172                                                              
03435244020260370000216183510025151020260325001020301070040705003034349756F150420F84000500000401             BPAMARCELA TAVEIRA CAMARGOS      2020092403    010135002                          68501660655TRANSAMAZONICA                          S/N  CIDADE NOVA                   94991356628                                                              
03435244020260370250834344293423941520260326001020301070024705003034349756F150420F84000500000201             BPAMARCELA TAVEIRA CAMARGOS      2020092403    010135002                          68501660655TRANSAMAZONICA                          S/N  CIDADE NOVA                   94991356628                                                              
03435244020260370250834344293423942520260326001020301070059700004940118104M150420F84001000000101             BPADAVI GABRIEL FREITAS DE SOUZA 2015080503    010                                68501590081VITAL BRASIL                            21   DA PAZ                        94991351649                                                              
03435244020260370000712267680822381020260327001020301070113702800166699164F150420R49800300000101             BPALIA KETLEN SOUZA MIRANDA      2022112103    010135010                          68501110765AVENIDA M ADELINA                       1143 INDEPENDENCIA                 94991111079                                                              
03435244020260370700689102613125151020260325001030301070040700006914525700M150420F84000600000201             BPAJOSE PEDRO ARAUJO SEMENTINO   2019070503    010135002                          68505040472FOLHA 20                                03   NOVA MARABA                   94988137871                                                              
03435244020260370080694939468022381020260325001030301070113703005814886977M150420R49800600000401             BPAMARLEY GABRIEL MARRONE F SILVA2019092003    010135010                          68501080008PARAISO                                 1058 LIBERDADE                     94992309985                                                              
03435244020260370570443244423022381020260325001030301070113703603003235838M150420R49800600000101             BPAEDUARDO JOAQUIM A. RODRIGUES  2019091803    010135010                          68514300561RUA 13                                  12   VALE DO ITACAIUNAS            94992420685                                                              
03435244020260370810451977123323942520260326001030301070059704804543912845M150420F84000700000101             BPAFRANCISCO MIGUEL D.S MAGALHAES2018041703    010                                68503620762AVENIDA BRASILIA                        01   BELO HORIZONTE                94991119755                                                              
03435244020260370000266387670925151020260325001030301070040700601914114867M150420F84000400000901             BPAHEITOR NOHUEIRA DOS SANTOS    2021050103    010135002                          68501220008AVENIDA TIRADENTES                      47   INDEPENDENCIA                 94991813870                                                              
03435244020260370000216183510025151020260331001030301070040701002823356390M150420F84000500000201             BPAANDREW KAUE F ANDRADE         2020050803    010135002                          68504230081QUADRA 13                               05   NPOVA MARABA                  94993020403                                                              
03435244020260370250834344293423941520260325001030301070024700601914114867M150420F84000400000201             BPAHEITOR NOHUEIRA DOS SANTOS    2021050103    010135002                          68501220008AVENIDA TIRADENTES                      47   INDEPENDENCIA                 94991813870                                                              
03435244020260370000712267680822381020260330001030301070113700504518495454M150420R49800600000101             BPABRYAN GUILHERME A DOS SANTOS  2019092603    010135010                          68501720765AV MANAUS                               01   BOM PLANALTO                  94991054822                                                              
03435244020260370700689102613125151020260325001040301070040706301196100080M150420F84000600000301             BPACARLOS BENJAMIM FORMENTINI    2019061403    010135002                          68514300081RUA 06                                  69   CIDADE NOVA                   94991701945                                                              
03435244020260370080694939468022381020260331001040301070113708600553153581M150420R49801100000101             BPAJOSE HUMBERTO LIRA DA COSTA   2014073103    010135010                          68501646081MARECHAL RONDEON                        01   BOM PLANALTO                  93992168987                                                              
03435244020260370570443244423022381020260325001040301070113707807614489718M150420R49800500000101             BPAEMANUEL RODRIGUES DA SILVA    2020050503    010135010                          68501530081ALFREDO MONCAO                          24   BOM PLANALTO                  949228-3411                                                              
03435244020260370810451977123323942520260327001040301070059704808023363743F150420F84000800000101             BPACECILIA JARDIM MARTINS        2017092103    010                                68501000081FOLHA 21 QD 08                          37   NOVA MARABA                   94991559136                                                              
03435244020260370000266387670925151020260326001040301070040702800166699164F150420F84000300000201             BPALIA KETLEN SOUZA MIRANDA      2022112103    010135002                          68501110765AVENIDA M ADELINA                       1143 INDEPENDENCIA                 94991111079                                                              
03435244020260370000216183510025151020260330001040301070040704209291728581M150420F84000600000301             BPAJOSE FELIPE DOS SANTOS LIMA   2020012903    010135002                          68501290081NOSSA SENHORA APARECIDA                 1331 LIBERDADE                     94991855636                                                              
03435244020260370000712267680822381020260331001040301070113701002823356390M150420R49800500000101             BPAANDREW KAUE F ANDRADE         2020050803    010135010                          68504230081QUADRA 13                               05   NPOVA MARABA                  94993020403                                                              
03435244020260370700689102613125151020260325001050301070040701805221292772F150420F84000600000201             BPACECILIA MARIAH CARVALHO PAIXAO2019122603    010135002                          68503660008AV TOCANTINS                            1548 NOVO HORIZONTE                94992777811                                                              
03435244020260370080694939468022381020260326001050301070113705003034349756F150420R49800500000101             BPAMARCELA TAVEIRA CAMARGOS      2020092403    010135010                          68501660655TRANSAMAZONICA                          S/N  CIDADE NOVA                   94991356628                                                              
03435244020260370570443244423022381020260331001050301070113706808766355024M150420R49800400000101             BPABRYAN GAEL DO NASCIMENTO L D P2022030803    010135010                          68501526081RUA PERNAMBUCO                          16   BELO HORIZONTE                94981087735                                                              
03435244020260370000266387670925151020260325001050301070040708600553153581M150420F84001100000401             BPAJOSE HUMBERTO LIRA DA COSTA   2014073103    010135002                          68501646081MARECHAL RONDEON                        01   BOM PLANALTO                  93992168987                                                              
03435244020260370000216183510025151020260325001050301070040703603003235838M150420F84000600000301             BPAEDUARDO JOAQUIM A. RODRIGUES  2019091803    010135002                          68514300561RUA 13                                  12   VALE DO ITACAIUNAS            94992420685                                                              
03435244020260370700689102613125151020260325001060301070040707502243936590M150420F84001200000201             BPAPEDRO HEITOR N. BEZERRA       2013071103    010135002                          68505370472FOLHA 20 QD 15                CASA      01   NOVA MARABA                   94981472534                                                              
03435244020260370080694939468022381020260325001060301070113700601914114867M150420R49800400000201             BPAHEITOR NOHUEIRA DOS SANTOS    2021050103    010135010                          68501220008AVENIDA TIRADENTES                      47   INDEPENDENCIA                 94991813870                                                              
03435244020260370570443244423022381020260325001060301070113706301196100080M150420R49800600000201             BPACARLOS BENJAMIM FORMENTINI    2019061403    010135010                          68514300081RUA 06                                  69   CIDADE NOVA                   94991701945                                                              
03435244020260370000266387670925151020260330001060301070040700504518495454M150420F84000600000101             BPABRYAN GUILHERME A DOS SANTOS  2019092603    010135002                          68501720765AV MANAUS                               01   BOM PLANALTO                  94991054822                                                              
03435244020260370000216183510025151020260326001060301070040704804543912845M150420F84000700000301             BPAFRANCISCO MIGUEL D.S MAGALHAES2018041703    010135002                          68503620762AVENIDA BRASILIA                        01   BELO HORIZONTE                94991119755                                                              
03435244020260370000712267680822381020260327001060301070113706408616564780F150420R49801600000201             BPAEMILY VIANA CALDAS            2010010403    010135002                          68501100008ITACAIUNAS                              137  NOVO PLANALTO                 94991676746                                                              
03435244020260370700689102613125151020260326001070301070040700205436171624M150420F84001100000201             BPAJOAO VITOR ARAUJO NUNES       2015020403    010135002                          68500340561RUA 27 DE MARCO                         356  FRANCISCO COELHO              94981440235                                                              
03435244020260370080694939468022381020260326001070301070113700006914525700M150420R49800600000101             BPAJOSE PEDRO ARAUJO SEMENTINO   2019070503    010135010                          68505040472FOLHA 20                                03   NOVA MARABA                   94988137871                                                              
03435244020260370570443244423022381020260325001070301070113704808023363743F150420R49800800000301             BPACECILIA JARDIM MARTINS        2017092103    010135010                          68501000081FOLHA 21 QD 08                          37   NOVA MARABA                   94991559136                                                              
03435244020260370000266387670925151020260325001070301070040703005814886977M150420F84000600000501             BPAMARLEY GABRIEL MARRONE F SILVA2019092003    010135002                          68501080008PARAISO                                 1058 LIBERDADE                     94992309985                                                              
03435244020260370000216183510025151020260325001070301070040708707170128792M150420F84000400000101             BPAANTHONY GAEL FERNDESNAVA      2021112403    010135002                          68501070081RUA GABRIL PIMENTA                      11   INDEPENDENCIA                 94991650429                                                              
03435244020260370000712267680822381020260325001070301070113708707170128792M150420R49800400000101             BPAANTHONY GAEL FERNDESNAVA      2021112403    010135010                          68501070081RUA GABRIL PIMENTA                      11   INDEPENDENCIA                 94991650429                                                              
03435244020260370570443244423022381020260325001080301070113707502243936590M150420R49801200000201             BPAPEDRO HEITOR N. BEZERRA       2013071103    010135010                          68505370472FOLHA 20 QD 15                CASA      01   NOVA MARABA                   94981472534                                                              
03435244020260370000266387670925151020260325001080301070040706808766355024M150420F84000400000301             BPABRYAN GAEL DO NASCIMENTO L D P2022030803    010135002                          68501526081RUA PERNAMBUCO                          16   BELO HORIZONTE                94981087735                                                              
03435244020260370000712267680822381020260325001080301070113704804543912845M150420R49800700000101             BPAFRANCISCO MIGUEL D.S MAGALHAES2018041703    010135010                          68503620762AVENIDA BRASILIA                        01   BELO HORIZONTE                94991119755                                                              
03435244020260370700689102613125151020260330001080301070040704007305535262M150420F84000500000101             BPADAVIDSON PACHECO LIRA         2020071303    010135002                          68514300100QUATORZA                                S/N  ARAGUAIA                      94991916719                                                              
03435244020260370080694939468022381020260330001080301070113700002201621300M150420R49800800000101             BPAERICK FERNANDO MORAES DE SOUSA2017070603    010135010                          68501150008TRINTA E UM DE MARO                     362  LARANJEIRAS                   94992805720                                                              
03435244020260370000266387670925151020260330001090301070040702405072896223F150420F84001600000201             BPAEMILIA CUNHA NEVES SAMPAIO    2009040903    010135002                          68503560081FORTALEZA                               30   BELO HORIZONTE                                                                                         
03435244020260370000712267680822381020260325001090301070113704804542599043M150420R49800600000201             BPAAQUILES BORGES CAVALCANTE     2019052603    010135010                          68501580561RUA SERVULO BRITO                       SN   NOVO HORIZONTE                94992683402                                                              
03435244020260370700689102613125151020260325001090301070040705007686996854M150420F84000000000201             BPACARLOS DAVI SIMEAO DOS SANTOS 2025082003    010135002                          68503240472RUAS DOIS MIL                           S/N  BELO HORIZONTE                94984173656                                                              
03435244020260370080694939468022381020260326001090301070113703407246097916M150420R49800700000101             BPAARTHUR PYETRO FREITAS DE SOUZA2018051103    010135010                          68503000081VITAL BRASIL                  CASA      21   DA PAZ                        94991083264                                                              
03435244020260370000266387670925151020260326001100301070040700002201621300M150420F84000800000401             BPAERICK FERNANDO MORAES DE SOUSA2017070603    010135002                          68501150008TRINTA E UM DE MARO                     362  LARANJEIRAS                   94992805720                                                              
03435244020260370000712267680822381020260325001100301070113701805221292772F150420R49800600000301             BPACECILIA MARIAH CARVALHO PAIXAO2019122603    010135010                          68503660008AV TOCANTINS                            1548 NOVO HORIZONTE                94992777811                                                              
03435244020260370080694939468022381020260330001100301070113704007305535262M150420R49800500000101             BPADAVIDSON PACHECO LIRA         2020071303    010135010                          68514300100QUATORZA                                S/N  ARAGUAIA                      94991916719                                                              
03435244020260370000266387670925151020260326001110301070040700109981446010F150420F84000800000201             BPALUIZA SERRA XOTA              2017092903    010135002                          68514300561RUA TRINTA E QUATRO                     SN   DELTA PARK                    94992707190                                                              
03435244020260370000712267680822381020260325001110301070113700109981446010F150420R49800800000301             BPALUIZA SERRA XOTA              2017092903    010135010                          68514300561RUA TRINTA E QUATRO                     SN   DELTA PARK                    94992707190                                                              
03435244020260370000266387670925151020260327001120301070040700004940118104M150420F84001000000301             BPADAVI GABRIEL FREITAS DE SOUZA 2015080503    010135002                          68501590081VITAL BRASIL                            21   DA PAZ                        94991351649                                                              
03435244020260370000266387670925151020260326001130301070040708008565066630M150420F84001100000101             BPADANILO AMJITYTI OLIVEIRA      20140418050246010135002                          68502190081DA COLINA                               146  AMAPA                         94999346350                                                              
03435244020260470000266387670925151020260401001010301070040708600553153581M150420F84001100000801             BPAJOSE HUMBERTO LIRA DA COSTA   2014073103    010135002                          68501646081MARECHAL RONDEON                        01   BOM PLANALTO                  93992168987                                                              
03435244020260470570443244423022381020260401001010301070113707807614489718M150420R49800500000901             BPAEMANUEL RODRIGUES DA SILVA    2020050503    010135010                          68501530081ALFREDO MONCAO                          24   BOM PLANALTO                  949228-3411                                                              
03435244020260470080694939468022381020260406001010301070113703005814886977M150420R49800600000601             BPAMARLEY GABRIEL MARRONE F SILVA2019092003    010135010                          68501080008PARAISO                                 1058 LIBERDADE                     94992309985                                                              
03435244020260470000216183510025151020260401001010301070040706408616564780F150420F84001600000601             BPAEMILY VIANA CALDAS            2010010403    010135002                          68501100008ITACAIUNAS                              137  NOVO PLANALTO                 94991676746                                                              
03435244020260470690710117493625151020260402001010301070040704808023363743F150420F84000800000601             BPACECILIA JARDIM MARTINS        2017092103    010135002                          68501000081FOLHA 21 QD 08                          37   NOVA MARABA                   94991559136                                                              
03435244020260470250834344293423941520260406001010301070024706808766355024M150420F84000400000301             BPABRYAN GAEL DO NASCIMENTO L D P2022030803    010135002                          68501526081RUA PERNAMBUCO                          16   BELO HORIZONTE                94981087735                                                              
03435244020260470250834344293423942520260406001010301070059706203549636263M150420F84000800000401             BPACARLOS HENRIQUE WERNECK MONTEL2017110703    010                                68514300081ESMERALDA                               30   NOSSA SENHORA APRECIDA        94992487172                                                              
03435244020260470810454186273423941520260417001010301070024702800166699164F150420F84000300000101             BPALIA KETLEN SOUZA MIRANDA      2022112103    010135002                          68501110765AVENIDA M ADELINA                       1143 INDEPENDENCIA                 94991111079                                                              
03435244020260470810451977123323941520260407001010301070024709208208366133M150420F84000400000201             BPAEVELISE JULIANA DOS S DA COSTA2021042903    010135002                          68513540472FOLHA 19                                09   NOVA MARABA                   94992698780                                                              
03435244020260470810451977123323942520260409001010301070059700205436171624M150420F84001100000201             BPAJOAO VITOR ARAUJO NUNES       2015020403    010                                68500340561RUA 27 DE MARCO                         356  FRANCISCO COELHO              94981440235                                                              
03435244020260470000266387670925151020260403001020301070040700004940118104M150420F84001000000301             BPADAVI GABRIEL FREITAS DE SOUZA 2015080503    010135002                          68501590081VITAL BRASIL                            21   DA PAZ                        94991351649                                                              
03435244020260470570443244423022381020260406001020301070113700004940118104M150420R49801000000501             BPADAVI GABRIEL FREITAS DE SOUZA 2015080503    010135010                          68501590081VITAL BRASIL                            21   DA PAZ                        94991351649                                                              
03435244020260470080694939468022381020260409001020301070113705005451320956M150420R49801000000201             BPALUCAS GABRIEL SOUZA LIMA      2016022903    010135010                          68514300081RES TOCANTINS                           24   SAO FELIX                     94992836951                                                              
03435244020260470700689102613125151020260415001020301070040700006914525700M150420F84000600000301             BPAJOSE PEDRO ARAUJO SEMENTINO   2019070503    010135002                          68505040472FOLHA 20                                03   NOVA MARABA                   94988137871                                                              
03435244020260470000216183510025151020260406001020301070040707007894195431M150420F84001000000101             BPAANDRE JOAQUIN QUEIRO BASSANI  2015081301    010135002                          68514300081CENTRO NORTE                            02   MORADA NOVA                   94992722414                                                              
03435244020260470250834344293423941520260409001020301070024705003034349756F150420F84000500000401             BPAMARCELA TAVEIRA CAMARGOS      2020092403    010135002                          68501660655TRANSAMAZONICA                          S/N  CIDADE NOVA                   94991356628                                                              
03435244020260470250834344293423942520260407001020301070059707502243936590M150420F84001200000401             BPAPEDRO HEITOR N. BEZERRA       2013071103    010                                68505370472FOLHA 20 QD 15                CASA      01   NOVA MARABA                   94981472534                                                              
03435244020260470810451977123323941520260406001020301070024705007686996854M150420F84000000000401             BPACARLOS DAVI SIMEAO DOS SANTOS 2025082003    010135002                          68503240472RUAS DOIS MIL                           S/N  BELO HORIZONTE                94984173656                                                              
03435244020260470810451977123323942520260407001020301070059708008565066630M150420F84001100000301             BPADANILO AMJITYTI OLIVEIRA      20140418050246010                                68502190081DA COLINA                               146  AMAPA                         94999346350                                                              
03435244020260470000266387670925151020260401001030301070040706808766355024M150420F84000400000601             BPABRYAN GAEL DO NASCIMENTO L D P2022030803    010135002                          68501526081RUA PERNAMBUCO                          16   BELO HORIZONTE                94981087735                                                              
03435244020260470570443244423022381020260406001030301070113706808766355024M150420R49800400000601             BPABRYAN GAEL DO NASCIMENTO L D P2022030803    010135010                          68501526081RUA PERNAMBUCO                          16   BELO HORIZONTE                94981087735                                                              
03435244020260470080694939468022381020260402001030301070113700006914525700M150420R49800600000501             BPAJOSE PEDRO ARAUJO SEMENTINO   2019070503    010135010                          68505040472FOLHA 20                                03   NOVA MARABA                   94988137871                                                              
03435244020260470700689102613125151020260408001030301070040701805221292772F150420F84000600000601             BPACECILIA MARIAH CARVALHO PAIXAO2019122603    010135002                          68503660008AV TOCANTINS                            1548 NOVO HORIZONTE                94992777811                                                              
03435244020260470000216183510025151020260401001030301070040705003034349756F150420F84000500001001             BPAMARCELA TAVEIRA CAMARGOS      2020092403    010135002                          68501660655TRANSAMAZONICA                          S/N  CIDADE NOVA                   94991356628                                                              
03435244020260470250834344293423942520260407001030301070059706408616564780F150420F84001600000301             BPAEMILY VIANA CALDAS            2010010403    010                                68501100008ITACAIUNAS                              137  NOVO PLANALTO                 94991676746                                                              
03435244020260470810451977123323942520260406001030301070059703407246097916M150420F84000700000601             BPAARTHUR PYETRO FREITAS DE SOUZA2018051103    010                                68503000081VITAL BRASIL                  CASA      21   DA PAZ                        94991083264                                                              
03435244020260470000266387670925151020260402001040301070040706203549636263M150420F84000800000401             BPACARLOS HENRIQUE WERNECK MONTEL2017110703    010135002                          68514300081ESMERALDA                               30   NOSSA SENHORA APRECIDA        94992487172                                                              
03435244020260470570443244423022381020260408001040301070113704808023363743F150420R49800800000601             BPACECILIA JARDIM MARTINS        2017092103    010135010                          68501000081FOLHA 21 QD 08                          37   NOVA MARABA                   94991559136                                                              
03435244020260470080694939468022381020260407001040301070113700502575925258F150420R49800700000101             BPAMEL MATOS FRAZO               2018092703    010135010                          68514300081RUA SO LUIZ QD30                        59   DA PAZ                        94992711641                                                              
03435244020260470700689102613125151020260406001040301070040700000191364503M150420F84000700000601             BPAARTHUR BENICIO COSTA SILVA    2018070503    010135002                          68507560820FOLHA 31                                37   NOVA MARABA                   94992293320                                                              
03435244020260470000216183510025151020260408001040301070040706207074869866M150420F84000500000101             BPAJOAO MIGUEL FRANCA FERREIRA   2020041303    010135002                          68500350100QUINZE DE NOVEMBRO                      CASA VELHA MARAB                   94992547520                                                              
03435244020260470250834344293423941520260406001040301070024700601914114867M150420F84000400000301             BPAHEITOR NOHUEIRA DOS SANTOS    2021050103    010135002                          68501220008AVENIDA TIRADENTES                      47   INDEPENDENCIA                 94991813870                                                              
03435244020260470250834344293423942520260407001040301070059700502575925258F150420F84000700000201             BPAMEL MATOS FRAZO               2018092703    010                                68514300081RUA SO LUIZ QD30                        59   DA PAZ                        94992711641                                                              
03435244020260470810451977123323942520260417001040301070059705005451320956M150420F84001000000101             BPALUCAS GABRIEL SOUZA LIMA      2016022903    010                                68514300081RES TOCANTINS                           24   SAO FELIX                     94992836951                                                              
03435244020260470000266387670925151020260413001050301070040702909547532270M150420F84000300000101             BPARHAVI GABRIEL DE SOUZA DA .   2022101304    010135002                          68501450081UADI MOUSSALEM                          279  BOM PLANALTO                  94991210736                                                              
03435244020260470570443244423022381020260401001050301070113707502243936590M150420R49801200000501             BPAPEDRO HEITOR N. BEZERRA       2013071103    010135010                          68505370472FOLHA 20 QD 15                CASA      01   NOVA MARABA                   94981472534                                                              
03435244020260470080694939468022381020260417001050301070113702800166699164F150420R49800300000101             BPALIA KETLEN SOUZA MIRANDA      2022112103    010135010                          68501110765AVENIDA M ADELINA                       1143 INDEPENDENCIA                 94991111079                                                              
03435244020260470700689102613125151020260402001050301070040706301196100080M150420F84000600000801             BPACARLOS BENJAMIM FORMENTINI    2019061403    010135002                          68514300081RUA 06                                  69   CIDADE NOVA                   94991701945                                                              
03435244020260470000216183510025151020260401001050301070040703603003235838M150420F84000600000601             BPAEDUARDO JOAQUIM A. RODRIGUES  2019091803    010135002                          68514300561RUA 13                                  12   VALE DO ITACAIUNAS            94992420685                                                              
03435244020260470250834344293423942520260406001050301070059700000191364503M150420F84000700000301             BPAARTHUR BENICIO COSTA SILVA    2018070503    010                                68507560820FOLHA 31                                37   NOVA MARABA                   94992293320                                                              
03435244020260470810451977123323942520260402001050301070059700109981446010F150420F84000800000601             BPALUIZA SERRA XOTA              2017092903    010                                68514300561RUA TRINTA E QUATRO                     SN   DELTA PARK                    94992707190                                                              
03435244020260470000266387670925151020260401001060301070040700601914114867M150420F84000400001801             BPAHEITOR NOHUEIRA DOS SANTOS    2021050103    010135002                          68501220008AVENIDA TIRADENTES                      47   INDEPENDENCIA                 94991813870                                                              
03435244020260470570443244423022381020260401001060301070113703603003235838M150420R49800600000401             BPAEDUARDO JOAQUIM A. RODRIGUES  2019091803    010135010                          68514300561RUA 13                                  12   VALE DO ITACAIUNAS            94992420685                                                              
03435244020260470080694939468022381020260407001060301070113700601914114867M150420R49800400000601             BPAHEITOR NOHUEIRA DOS SANTOS    2021050103    010135010                          68501220008AVENIDA TIRADENTES                      47   INDEPENDENCIA                 94991813870                                                              
03435244020260470700689102613125151020260409001060301070040705005451320956M150420F84001000000401             BPALUCAS GABRIEL SOUZA LIMA      2016022903    010135002                          68514300081RES TOCANTINS                           24   SAO FELIX                     94992836951                                                              
03435244020260470000216183510025151020260407001060301070040704206549061690M150420F84000600000201             BPAJOAO LUCAS MIRANDA ROCHA      2019102203    010135002                          68514300081RUA PEDRO MARINHO                       2359 CIDADE NOVA                   94991037068                                                              
03435244020260470000266387670925151020260409001070301070040702800166699164F150420F84000300000301             BPALIA KETLEN SOUZA MIRANDA      2022112103    010135002                          68501110765AVENIDA M ADELINA                       1143 INDEPENDENCIA                 94991111079                                                              
03435244020260470080694939468022381020260407001070301070113701805221292772F150420R49800600000301             BPACECILIA MARIAH CARVALHO PAIXAO2019122603    010135010                          68503660008AV TOCANTINS                            1548 NOVO HORIZONTE                94992777811                                                              
03435244020260470700689102613125151020260402001070301070040700205436171624M150420F84001100000601             BPAJOAO VITOR ARAUJO NUNES       2015020403    010135002                          68500340561RUA 27 DE MARCO                         356  FRANCISCO COELHO              94981440235                                                              
03435244020260470000216183510025151020260408001070301070040708707170128792M150420F84000400000201             BPAANTHONY GAEL FERNDESNAVA      2021112403    010135002                          68501070081RUA GABRIL PIMENTA                      11   INDEPENDENCIA                 94991650429                                                              
03435244020260470570443244423022381020260401001070301070113706207074869866M150420R49800500000201             BPAJOAO MIGUEL FRANCA FERREIRA   2020041303    010135010                          68500350100QUINZE DE NOVEMBRO                      CASA VELHA MARAB                   94992547520                                                              
03435244020260470000266387670925151020260407001080301070040700502575925258F150420F84000700000401             BPAMEL MATOS FRAZO               2018092703    010135002                          68514300081RUA SO LUIZ QD30                        59   DA PAZ                        94992711641                                                              
03435244020260470570443244423022381020260401001080301070113705003034349756F150420R49800500000601             BPAMARCELA TAVEIRA CAMARGOS      2020092403    010135010                          68501660655TRANSAMAZONICA                          S/N  CIDADE NOVA                   94991356628                                                              
03435244020260470080694939468022381020260415001080301070113704804543912845M150420R49800800000101             BPAFRANCISCO MIGUEL D.S MAGALHAES2018041703    010135010                          68503620762AVENIDA BRASILIA                        01   BELO HORIZONTE                94991119755                                                              
03435244020260470700689102613125151020260401001080301070040707502243936590M150420F84001200000501             BPAPEDRO HEITOR N. BEZERRA       2013071103    010135002                          68505370472FOLHA 20 QD 15                CASA      01   NOVA MARABA                   94981472534                                                              
03435244020260470000216183510025151020260401001080301070040704804543912845M150420F84000700000601             BPAFRANCISCO MIGUEL D.S MAGALHAES2018041703    010135002                          68503620762AVENIDA BRASILIA                        01   BELO HORIZONTE                94991119755                                                              
03435244020260470000266387670925151020260407001090301070040708008361756620F150420F84000400000201             BPAJULIA CATHARINE SIDONIO FURTAD2021091103    010135002                          68503360081ESPIRITO SANRO                          118  BELO HORIZONTE                94991440099                                                              
03435244020260470570443244423022381020260402001090301070113706301196100080M150420R49800600000701             BPACARLOS BENJAMIM FORMENTINI    2019061403    010135010                          68514300081RUA 06                                  69   CIDADE NOVA                   94991701945                                                              
03435244020260470080694939468022381020260413001090301070113702607792931043M150420R49800900000101             BPAMARCOS IBRAHIMOVIC P. DA SILVA2016122903    010135010                          68506380472FL16 QD38 LT05                          S/N  NOVA MARABA                   94991883004                                                              
03435244020260470700689102613125151020260406001090301070040704007305535262M150420F84000500000101             BPADAVIDSON PACHECO LIRA         2020071303    010135002                          68514300100QUATORZA                                S/N  ARAGUAIA                      94991916719                                                              
03435244020260470000266387670925151020260401001100301070040703005814886977M150420F84000600000701             BPAMARLEY GABRIEL MARRONE F SILVA2019092003    010135002                          68501080008PARAISO                                 1058 LIBERDADE                     94992309985                                                              
03435244020260470080694939468022381020260402001100301070113706203549636263M150420R49800800000501             BPACARLOS HENRIQUE WERNECK MONTEL2017110703    010135010                          68514300081ESMERALDA                               30   NOSSA SENHORA APRECIDA        94992487172                                                              
03435244020260470570443244423022381020260401001100301070113700002201621300M150420R49800800000501             BPAERICK FERNANDO MORAES DE SOUSA2017070603    010135010                          68501150008TRINTA E UM DE MARO                     362  LARANJEIRAS                   94992805720                                                              
03435244020260470700689102613125151020260406001100301070040709208208366133M150420F84000400000401             BPAEVELISE JULIANA DOS S DA COSTA2021042903    010135002                          68513540472FOLHA 19                                09   NOVA MARABA                   94992698780                                                              
03435244020260470080694939468022381020260406001110301070113700000191364503M150420R49800700000401             BPAARTHUR BENICIO COSTA SILVA    2018070503    010135010                          68507560820FOLHA 31                                37   NOVA MARABA                   94992293320                                                              
03435244020260470000266387670925151020260401001110301070040700002201621300M150420F84000800001301             BPAERICK FERNANDO MORAES DE SOUSA2017070603    010135002                          68501150008TRINTA E UM DE MARO                     362  LARANJEIRAS                   94992805720                                                              
03435244020260470700689102613125151020260415001110301070040705007686996854M150420F84000000000201             BPACARLOS DAVI SIMEAO DOS SANTOS 2025082003    010135002                          68503240472RUAS DOIS MIL                           S/N  BELO HORIZONTE                94984173656                                                              
03435244020260470080694939468022381020260407001120301070113708008361756620F150420R49800400000101             BPAJULIA CATHARINE SIDONIO FURTAD2021091103    010135010                          68503360081ESPIRITO SANRO                          118  BELO HORIZONTE                94991440099                                                              
03435244020260470000266387670925151020260408001120301070040700004987664806M150420F84000300000401             BPASAYMON DE CASTRO MENDES       2022071903    010135002                          68501140008GAIAPO                                  264  LARANJEIRAS                                                                                            
03435244020260470080694939468022381020260402001130301070113703407246097916M150420R49800700000501             BPAARTHUR PYETRO FREITAS DE SOUZA2018051103    010135010                          68503000081VITAL BRASIL                  CASA      21   DA PAZ                        94991083264                                                              
03435244020260470080694939468022381020260406001140301070113704007305535262M150420R49800500000201             BPADAVIDSON PACHECO LIRA         2020071303    010135010                          68514300100QUATORZA                                S/N  ARAGUAIA                      94991916719                                                              
03435244020260470080694939468022381020260407001150301070113708600553153581M150420R49801100000201             BPAJOSE HUMBERTO LIRA DA COSTA   2014073103    010135010                          68501646081MARECHAL RONDEON                        01   BOM PLANALTO                  93992168987                                                              
03435244020260470080694939468022381020260413001160301070113700002201621300M150420R49800800000201             BPAERICK FERNANDO MORAES DE SOUSA2017070603    010135010                          68501150008TRINTA E UM DE MARO                     362  LARANJEIRAS                   94992805720                                                              
03435244020260470080694939468022381020260402001170301070113708008565066630M150420R49801100000201             BPADANILO AMJITYTI OLIVEIRA      20140418050246010135010                          68502190081DA COLINA                               146  AMAPA                         94999346350                                                              
03435244020260470080694939468022381020260407001180301070113709208208366133M150420R49800400000201             BPAEVELISE JULIANA DOS S DA COSTA2021042903    010135010                          68513540472FOLHA 19                                09   NOVA MARABA                   94992698780                                                              
03435244020260470080694939468022381020260402001190301070113705003034349756F150420R49800500000401             BPAMARCELA TAVEIRA CAMARGOS      2020092403    010135010                          68501660655TRANSAMAZONICA                          S/N  CIDADE NOVA                   94991356628                                                              
03435244020260470080694939468022381020260409001200301070113700004987664806M150420R49800300000201             BPASAYMON DE CASTRO MENDES       2022071903    010135010                          68501140008GAIAPO                                  264  LARANJEIRAS                                                                                            
